:10024000E4F5A8758921C28C758CFC758A66C28E0E
:10025000758DFD758BFDD288D28A75B80575A89706
:01026000227B
:03000600D28C2277
:03000E00C28C227F
:03002300020026B2
:10002600C0E0C083C082C0D075D000C000C001C08F
:0500360002C003C00739
:10003B00120006309926E508601BAB0FAA10A91118
:10004B001201E1FF74012511F511E43510F51015BE
:10005B00088F998003751501C2998048E5167014B5
:10006B00AF99EF651C6003EF7038C29D750E00757C
:10007B001601802EE51664016005E516B4022375A2
:10008B000A00750B64751602E50914650E6013AB57
:10009B0012AA13A914850E82758300E5991201FA31
:0400AB00050EC298E4
:1000AF00D007D003D002D001D000D0D0D082D083DF
:0300BF00D0E0325C
:03000B00020111DE
:10011100C0E0C0D0C28CD3E51F9400E51E9400401E
:1001210008E51F151F7002151EE516B4021BE50B2D
:10013100450A6015E50B150B7002150AE50B450A1A
:100141007007751603D29DC29C758CFC758A66D2A8
:060151008CD0D0D0E0329A
:03000300020157A0
:10015700C0E0C0F0C083C082C0D075D000C000C06E
:1001670001C002C003C004C005C006C0077F647E8B
:10017700001202C220B2031202D2D007D006D00565
:10018700D004D003D002D001D000D0D0D082D08309
:05019700D0F0D0E032C1
:0300130002019C4B
:10019C00C0E0C0F0C083C082C0D075D000C000C029
:1001AC0001C002C003C004C005C006C0077F647E46
:1001BC00001202C220B3031202D2D007D006D0051F
:1001CC00D004D003D002D001D000D0D0D082D083C4
:0501DC00D0F0D0E0327C
:0E02E100D2B3D2B27590FFC2B7C297C2B42298
:10027F00D28E7598D0D29CD29DC2B47512007513D0
:0B028F0000751418750904E4F5162230
:10021C00E4F5158B0F8A108911ED14F5081201E124
:10022C00FF74012511F511E43510F510309902C257
:03023C00998F99FE
:01023F00229C
:1002AF00C29B7518A5751B5A7B007A0079187D04BF
:0302BF0002021C1C
:080307001202EF12026180FEF8
:0C02EF001202401202E112027F0200061F
:1002C2008E1E8F1FD3E51F9400E51E940050F52269
:10026100120016E52030E00312030FE51660F4E5F5
:0E02710016B403FBE4F5161200C2D29C80E521
:0D001600E590543FF51CE5204401F5202243
:10029A00C2B7C297E52054FDF52054FBF520E5903E
:0502AA0054CFF51C22F9
:07030F0012000E75870122A8
:1000C200D2B4E51924FA60252414601814601A14B5
:1000D200601B14601D240470331202AFE515640125
:1000E200602A80F812029A8023C2B7801F1202D2BD
:1000F200801AAF20EF1313543F30E005751AFF80CA
:0F01020003E4F51A1202AFE515B401FBC2B422F3
:0F02D200E5204404F5204402F520D297D2B7224C
:030000000202FBFE
:0C02FB00787FE4F6D8FD7581210203072E
:1001E100BB010689828A83E0225002E722BBFE021C
:0901F100E32289828A83E493224F
:1001FA00F8BB010DE58229F582E5833AF583E8F03B
:10020A00225006E92582C8F622BBFE05E92582C8E6
:02021A00F222CE
:00000001FF
