:10044000E4F5A8758921C28C758CFC758A66C28E0C
:0D045000758DFD758BFD75B81A75A892228B
:03053800D28C2240
:0300230002015681
:10015600C0E0C083C082C0D075D000C000C001C05E
:0501660002C003C00708
:10016B00309926E508601BAB0FAA10A91112036E7C
:10017B00FF74012511F511E43510F51015088F9951
:10018B008003751501C2998030E51664016005E5A1
:10019B0016B40223750A00750B64751602E5091473
:1001AB00650E6013AB12AA13A914850E827583001A
:0901BB00E599120387050EC298B4
:1001C400D007D003D002D001D000D0D0D082D083C9
:0301D400D0E03246
:03000B00020246A8
:10024600C0E0C0D0C28CD3E5299400E528940040D4
:1002560008E529152970021528E516B40219E50BDB
:10026600450A6013E50B150B7002150AE50B450AE6
:100276007005751603C29CE516B40119E50D450C0B
:100286006013E50D150D7002150CE50D450C700596
:10029600751604C29C758CFC758A66D28CD0D0D03B
:0202A600E03244
:0E04F700C2B2C2B3C2B4C2B57590FFD2972292
:0D051300D28E7598D0C29CD2B5E4F51622A8
:1003D500D2B5E4F5158B0F8A108911ED14F50812C5
:1003E500036EFF74012511F511E43510F5103099F0
:0503F50002C2998F997E
:0103FA0022E0
:10045D00C2B58B128A1389148D09E4F50EF50C853E
:0D046D003E0D309802C298751601D29C22F7
:0D052000D29B7B007A0079177D010203D584
:10041E00120520E515B401FB7FC87E0012000EC246
:10042E009B7518A5751B5A7B007A0079187D0402FE
:02043E0003D5E4
:0E0505007B007A007918753EE87D0402045DE3
:080003001204D91204B080FEC2
:0F04D9001204401204F7120513120534020538FD
:10000E008E288F29D3E5299400E528940050F522F7
:1004B00012001E12047A1202EFD2B41200261202A7
:0904C000A81203A912002280F227
:04001E00751AFF222E
:10047A007FE87E0312000EE4F5177519F212041EC6
:0C048A00E515B401FB7F647E0002000E4B
:1002EF00E4F538F539F5177519F1751AFF05171279
:1002FF00041EE515B401FB120505E539640160160E
:10030F00E516B40307AF381203FB8005E516B404F6
:10031F00E975390180E4E4F5390538E538C39420EF
:02032F0040CBC1
:0103310022A9
:1003FB00EF131313541FFEEF5407FF74242EF8C092
:10040B0000E6FE7401A807088002C333D8FC4ED067
:02041B0000F6E9
:01041D0022BC
:10033200EFD3940050037F00221FEF131313541FB7
:10034200FEEF5407FF74242EF8E6FD7C0074017E54
:1003520000A807088005C333CE33CED8F9FFEE5C80
:0B036200FEEF5D4E60037F01227F0074
:01036D00226D
:10049600AB070BEBD39420500EAF03120332EF6081
:0A04A60003AF03220B80EC7F01225C
:1000260075380DE52330E0030200C91201D78F3879
:10003600E538C394004007E538D394084005E53811
:10004600B40A250521E521C394034006E4F522758B
:100056002101E52275F00AA4F522E538640A6063F9
:10006600E538042522F52222E53864097022E521C7
:10007600D394025049AF22120332BF0111751906FB
:10008600852217E4FF1204C9E5234401F523802ED7
:10009600E538B40B137519F4E4F517E5234401F5B7
:1000A60023E4FF1204C98016E538B40C167519F35B
:1000B600852217E5234401F5237F011204C9E4F5DF
:0300C60021F522FF
:0100C9002214
:07052D00E52354FEF5232233
:1002A800E51564017040E52B20E03BE52330E00DC7
:1002B80012041E12052D7F647E0002000E7519F5CA
:1002C800AF2A1204968F2A852A17E52B4401F52BAD
:1002D80012041EE515B401FB7B007A00791C753EFB
:0702E800E87D0412045D2211
:1003A900E52B30E026E51564017020E516B403104D
:1003B900E52B54FEF52BE51EB4FF10E4FF0204C93A
:0C03C900E516B40406E52B54FEF52B22CB
:1004C900EF7005D2B2D2B322BF0104D2B2C2B322B5
:0100220022BB
:0E04E8000C2C000102030405060708090A0B8C
:04053400E4F52022A8
:1001D7002097037F0C22E52014600E14600F146033
:1001E7001024037010C290800FC291800BC29280BE
:1001F70007C29380037F0D2220940D3094FDE520E4
:1002070075F003A4242C801E20950D3095FDE52064
:1002170075F003A4242D800E2096103096FDE5205E
:1002270075F003A4242EF8E6FE80027E0D7590FF7C
:0E0237000520E520C394044003E4F520AF0643
:010245002296
:030000000200CA31
:0C00CA00787FE4F6D8FD75813E0201113C
:10036E00BB010689828A83E0225002E722BBFE028D
:09037E00E32289828A83E49322C0
:10038700F8BB010DE58229F582E5833AF583E8F0AC
:10039700225006E92582C8F622BBFE05E92582C858
:0203A700F22240
:1000D600020003E493A3F8E493A34003F68001F23D
:1000E60008DFF48029E493A3F85407240CC8C3332B
:1000F600C4540F4420C8834004F456800146F6DFFA
:10010600E4800B01020408102040809004E8E47E9D
:10011600019360BCA3FF543F30E509541FFEE493EE
:10012600A360010ECF54C025E060A840B8E493A3B5
:10013600FAE493A3F8E493A3C8C582C8CAC583CAE0
:10014600F0A3C8C582C8CAC583CADFE9DEE780BE98
:0104F6000005
:00000001FF
