:10049700E4F5A8758921C28C758CFC758A66C28EB5
:0D04A700758DFD758BFD75B81A75A8922234
:03002000D28C225D
:0300230002015C7B
:10015C00C0E0C083C082C0D075D000C000C001C058
:05016C0002C003C00702
:10017100309926E51E601BAB25AA26A92712037418
:10018100FF74012527F527E43526F526151E8F99DD
:100191008003752B01C2998030E52C64016005E56F
:1001A1002CB40223752000752164752C02E51F14FF
:1001B10065246013AB28AA29A92A852482758300A6
:0901C100E59912038D0524C29892
:1001CA00D007D003D002D001D000D0D0D082D083C3
:0301DA00D0E03240
:03000B0002024CA2
:10024C00C0E0C0D0C28CD3E53F9400E53E940040A2
:10025C0008E53F153F7002153EE52CB40219E52167
:10026C0045206013E521152170021520E52145205C
:10027C007005752C03C29CE52CB40119E5234522AD
:10028C006013E523152370021522E5234522700522
:10029C00752C04C29C758CFC758A66D28CD0D0D01F
:0202AC00E0323E
:0E053F00C2B2C2B3C2B4C2B57590FFD2972249
:0D055B00D28E7598D0C29CD2B5E4F52C224A
:10040900D2B5E4F52B8B258A268927ED14F51E1222
:100419000374FF74012527F527E43526F52630995D
:0504290002C2998F9949
:01042E0022AB
:1004B400C2B58B288A29892A8D1FE4F524F5228563
:0D04C4005423309802C298752C01D29C225E
:0D056800D29B7B007A00792D7D01020409F1
:10047500120568E52BB401FB7FC87E00120520C27A
:100485009B752EA575315A7B007A00792E7D040265
:02049500040958
:0E054D007B007A00792E7554E87D040204B418
:0800030012000E12050780FE39
:10000E0012049712053F12055B1204521205980254
:02001E000020C0
:100520008E3E8F3FD3E53F9400E53E940050F52288
:100507001205941204D11202F5D2B4120026120277
:09051700AE1203AF12059C80F244
:040594007530FF229D
:1004D1007FE87E03120520E4F52D752FF2120475D5
:0C04E100E52BB401FB7F647E00020520C7
:1002F500E4F54EF54FF52D752FF17530FF052D12EF
:100305000475E52BB401FB12054DE54F640160163C
:10031500E52CB40307AF4E12042F8005E52CB40479
:10032500E9754F0180E4E4F54F054EE54EC3942091
:0203350040CBBB
:0103370022A3
:10042F00EF131313541FFEEF5407FF743A2EF8C047
:10043F0000E6FE7401A807088002C333D8FC4ED033
:02044F0000F6B5
:010451002288
:10033800EFD3940050037F00221FEF131313541FB1
:10034800FEEF5407FF743A2EF8E6FD7C0074017E38
:1003580000A807088005C333CE33CED8F9FFEE5C7A
:0B036800FEEF5D4E60037F01227F006E
:010373002267
:1004ED00AB070BEBD39420500EAF03120338EF6024
:0A04FD0003AF03220B80EC7F012205
:10002600754E0DE53930E0030200CF1201DD8F4E2B
:10003600E54EC394004007E54ED394084005E54ECF
:10004600B40A250537E537C394034006E4F5387549
:100056003701E53875F00AA4F538E54E640A60699B
:10006600E54E042538F53822E54E64097024E53757
:10007600D39402504FAF38120338BF0113752F06C1
:1000860085382DAD2DE4FF1203DDE5394401F53940
:100096008032E54EB40B15752FF4E4F52DE53944A1
:1000A60001F539AD2DE4FF1203DD8018E54EB40CE1
:1000B60018752FF385382DE5394401F539AD2D7FB7
:0900C600011203DDE4F537F53801
:0100CF00220E
:07058D00E53954FEF53922A7
:1002AE00E52B64017040E54120E03BE53930E00D7F
:1002BE0012047512058D7F647E00020520752FF5E0
:1002CE00AF401204ED8F4085402DE5414401F541CC
:1002DE00120475E52BB401FB7B007A00793275545C
:0702EE00E87D041204B422B4
:1003AF00E54130E028E52B64017022E52CB40312FF
:1003BF00E54154FEF541E534B4FF12AD40E4FF02D0
:0E03CF0003DDE52CB40406E54154FEF54122A1
:0403DD008F4F8D5061
:1003E100E54F701AE55075F00A84FF120575E55066
:1003F10075F00A84AFF012057DD2B2D2B322E54F77
:07040100B40104D2B2C2B342
:0104080022D1
:01059C00223C
:0E0530000C42000102030405060708090A0B2D
:04059800E4F536222E
:1001DD002097037F0C22E53614600E14600F146017
:1001ED001024037010C290800FC291800BC29280B8
:1001FD0007C29380037F0D2220940D3094FDE536C8
:10020D0075F003A42442801E20950D3095FDE53632
:10021D0075F003A42443800E2096103096FDE5362C
:10022D0075F003A42444F8E6FE80027E0D7590FF60
:0E023D000536E536C394044003E4F536AF06FB
:01024B002290
:10045200E4F580F5A07508C07509F9750AA4750B55
:10046200B0750C99750D92750E82750FF875108026
:03047200020585FB
:0805750074082FF8E6F580225E
:08057D0074082FF8E6F5A02236
:08058500E4FF12057502057D7B
:030000000200D02B
:0C00D000787FE4F6D8FD7581540201171A
:10037400BB010689828A83E0225002E722BBFE0287
:09038400E32289828A83E49322BA
:10038D00F8BB010DE58229F582E5833AF583E8F0A6
:10039D00225006E92582C8F622BBFE05E92582C852
:0203AD00F2223A
:1000DC00020003E493A3F8E493A34003F68001F237
:1000EC0008DFF48029E493A3F85407240CC8C33325
:1000FC00C4540F4420C8834004F456800146F6DFF4
:10010C00E4800B0102040810204080900530E47E4E
:10011C00019360BCA3FF543F30E509541FFEE493E8
:10012C00A360010ECF54C025E060A840B8E493A3AF
:10013C00FAE493A3F8E493A3C8C582C8CAC583CADA
:10014C00F0A3C8C582C8CAC583CADFE9DEE780BE92
:01053E0000BC
:00000001FF
